{
  "address": "0x9689b0814aB2339842eC005E6881efFe5261c35a",
  "abi": [
    {
      "inputs": [
        {
          "internalType": "uint256",
          "name": "_lockTime",
          "type": "uint256"
        },
        {
          "internalType": "address",
          "name": "dataFeedAddr",
          "type": "address"
        }
      ],
      "stateMutability": "nonpayable",
      "type": "constructor"
    },
    {
      "inputs": [],
      "name": "dataFeed",
      "outputs": [
        {
          "internalType": "contract AggregatorV3Interface",
          "name": "",
          "type": "address"
        }
      ],
      "stateMutability": "view",
      "type": "function"
    },
    {
      "inputs": [],
      "name": "fund",
      "outputs": [],
      "stateMutability": "payable",
      "type": "function"
    },
    {
      "inputs": [
        {
          "internalType": "address",
          "name": "",
          "type": "address"
        }
      ],
      "name": "funderToAmount",
      "outputs": [
        {
          "internalType": "uint256",
          "name": "",
          "type": "uint256"
        }
      ],
      "stateMutability": "view",
      "type": "function"
    },
    {
      "inputs": [],
      "name": "getChainlinkDataFeedLatestAnswer",
      "outputs": [
        {
          "internalType": "int256",
          "name": "",
          "type": "int256"
        }
      ],
      "stateMutability": "view",
      "type": "function"
    },
    {
      "inputs": [],
      "name": "getFund",
      "outputs": [],
      "stateMutability": "nonpayable",
      "type": "function"
    },
    {
      "inputs": [],
      "name": "getFundSuccess",
      "outputs": [
        {
          "internalType": "bool",
          "name": "",
          "type": "bool"
        }
      ],
      "stateMutability": "view",
      "type": "function"
    },
    {
      "inputs": [],
      "name": "owner",
      "outputs": [
        {
          "internalType": "address",
          "name": "",
          "type": "address"
        }
      ],
      "stateMutability": "view",
      "type": "function"
    },
    {
      "inputs": [],
      "name": "refund",
      "outputs": [],
      "stateMutability": "nonpayable",
      "type": "function"
    },
    {
      "inputs": [
        {
          "internalType": "address",
          "name": "_erc20Addr",
          "type": "address"
        }
      ],
      "name": "setErc20Addr",
      "outputs": [],
      "stateMutability": "nonpayable",
      "type": "function"
    },
    {
      "inputs": [
        {
          "internalType": "address",
          "name": "funder",
          "type": "address"
        },
        {
          "internalType": "uint256",
          "name": "amountToUpdate",
          "type": "uint256"
        }
      ],
      "name": "setFunderToAmount",
      "outputs": [],
      "stateMutability": "nonpayable",
      "type": "function"
    },
    {
      "inputs": [
        {
          "internalType": "address",
          "name": "newOrder",
          "type": "address"
        }
      ],
      "name": "transferOwnership",
      "outputs": [],
      "stateMutability": "nonpayable",
      "type": "function"
    }
  ],
  "transactionHash": "0x68a694acbe6deb281ad73479317f3d83908810157104836cb5acab92db15935d",
  "args": [
    180,
    "0x694AA1769357215DE4FAC081bf1f309aDC325306"
  ],
  "numDeployments": 1,
  "solcInputHash": "3ed36c504f504df610a3ba5114809e85",
  "bytecode": "0x6080604052670de0b6b3a76400006001556000600660146101000a81548160ff02191690831515021790555034801561003757600080fd5b5060405161164438038061164483398181016040528101906100599190610189565b80600260006101000a81548173ffffffffffffffffffffffffffffffffffffffff021916908373ffffffffffffffffffffffffffffffffffffffff16021790555033600360006101000a81548173ffffffffffffffffffffffffffffffffffffffff021916908373ffffffffffffffffffffffffffffffffffffffff160217905550426004819055508160058190555050506101c9565b600080fd5b6000819050919050565b610108816100f5565b811461011357600080fd5b50565b600081519050610125816100ff565b92915050565b600073ffffffffffffffffffffffffffffffffffffffff82169050919050565b60006101568261012b565b9050919050565b6101668161014b565b811461017157600080fd5b50565b6000815190506101838161015d565b92915050565b600080604083850312156101a05761019f6100f0565b5b60006101ae85828601610116565b92505060206101bf85828601610174565b9150509250929050565b61146c806101d86000396000f3fe60806040526004361061009c5760003560e01c80639e42ff90116100645780639e42ff9014610160578063b60d42881461018b578063bea4dfb514610195578063d39cf006146101c0578063da4658e0146101e9578063f2fde38b146102145761009c565b806313ffff01146100a15780634407e1e8146100ca578063590e1ae3146101075780638da5cb5b1461011e5780638edd6eb614610149575b600080fd5b3480156100ad57600080fd5b506100c860048036038101906100c39190610be9565b61023d565b005b3480156100d657600080fd5b506100f160048036038101906100ec9190610be9565b610311565b6040516100fe9190610c2f565b60405180910390f35b34801561011357600080fd5b5061011c610329565b005b34801561012a57600080fd5b50610133610582565b6040516101409190610c59565b60405180910390f35b34801561015557600080fd5b5061015e6105a8565b005b34801561016c57600080fd5b506101756107ee565b6040516101829190610cd3565b60405180910390f35b610193610814565b005b3480156101a157600080fd5b506101aa6108f7565b6040516101b79190610d07565b60405180910390f35b3480156101cc57600080fd5b506101e760048036038101906101e29190610d4e565b610998565b005b3480156101f557600080fd5b506101fe610a6f565b60405161020b9190610da9565b60405180910390f35b34801561022057600080fd5b5061023b60048036038101906102369190610be9565b610a82565b005b600360009054906101000a900473ffffffffffffffffffffffffffffffffffffffff1673ffffffffffffffffffffffffffffffffffffffff163373ffffffffffffffffffffffffffffffffffffffff16146102cd576040517f08c379a00000000000000000000000000000000000000000000000000000000081526004016102c490610e47565b60405180910390fd5b80600660006101000a81548173ffffffffffffffffffffffffffffffffffffffff021916908373ffffffffffffffffffffffffffffffffffffffff16021790555050565b60006020528060005260406000206000915090505481565b6005546004546103399190610e96565b42101561037b576040517f08c379a000000000000000000000000000000000000000000000000000000000815260040161037290610f16565b60405180910390fd5b6802b5e3af16b188000061038e47610b56565b106103ce576040517f08c379a00000000000000000000000000000000000000000000000000000000081526004016103c590610f82565b60405180910390fd5b60008060003373ffffffffffffffffffffffffffffffffffffffff1673ffffffffffffffffffffffffffffffffffffffff168152602001908152602001600020540361044f576040517f08c379a000000000000000000000000000000000000000000000000000000000815260040161044690610fee565b60405180910390fd5b60003373ffffffffffffffffffffffffffffffffffffffff166000803373ffffffffffffffffffffffffffffffffffffffff1673ffffffffffffffffffffffffffffffffffffffff168152602001908152602001600020546040516104b39061103f565b60006040518083038185875af1925050503d80600081146104f0576040519150601f19603f3d011682016040523d82523d6000602084013e6104f5565b606091505b5050809150508061053b576040517f08c379a0000000000000000000000000000000000000000000000000000000008152600401610532906110a0565b60405180910390fd5b60008060003373ffffffffffffffffffffffffffffffffffffffff1673ffffffffffffffffffffffffffffffffffffffff1681526020019081526020016000208190555050565b600360009054906101000a900473ffffffffffffffffffffffffffffffffffffffff1681565b6005546004546105b89190610e96565b4210156105fa576040517f08c379a00000000000000000000000000000000000000000000000000000000081526004016105f190610f16565b60405180910390fd5b600360009054906101000a900473ffffffffffffffffffffffffffffffffffffffff1673ffffffffffffffffffffffffffffffffffffffff163373ffffffffffffffffffffffffffffffffffffffff161461068a576040517f08c379a000000000000000000000000000000000000000000000000000000000815260040161068190610e47565b60405180910390fd5b6802b5e3af16b188000061069d47610b56565b10156106de576040517f08c379a00000000000000000000000000000000000000000000000000000000081526004016106d59061110c565b60405180910390fd5b60003373ffffffffffffffffffffffffffffffffffffffff16476040516107049061103f565b60006040518083038185875af1925050503d8060008114610741576040519150601f19603f3d011682016040523d82523d6000602084013e610746565b606091505b5050809150508061078c576040517f08c379a0000000000000000000000000000000000000000000000000000000008152600401610783906110a0565b60405180910390fd5b60008060003373ffffffffffffffffffffffffffffffffffffffff1673ffffffffffffffffffffffffffffffffffffffff168152602001908152602001600020819055506001600660146101000a81548160ff02191690831515021790555050565b600260009054906101000a900473ffffffffffffffffffffffffffffffffffffffff1681565b60015461082034610b56565b1015610861576040517f08c379a000000000000000000000000000000000000000000000000000000000815260040161085890611178565b60405180910390fd5b6005546004546108719190610e96565b42106108b2576040517f08c379a00000000000000000000000000000000000000000000000000000000081526004016108a9906111e4565b60405180910390fd5b346000803373ffffffffffffffffffffffffffffffffffffffff1673ffffffffffffffffffffffffffffffffffffffff16815260200190815260200160002081905550565b600080600260009054906101000a900473ffffffffffffffffffffffffffffffffffffffff1673ffffffffffffffffffffffffffffffffffffffff1663feaf968c6040518163ffffffff1660e01b815260040160a060405180830381865afa158015610967573d6000803e3d6000fd5b505050506040513d601f19601f8201168201806040525081019061098b9190611287565b5050509150508091505090565b600660009054906101000a900473ffffffffffffffffffffffffffffffffffffffff1673ffffffffffffffffffffffffffffffffffffffff163373ffffffffffffffffffffffffffffffffffffffff1614610a28576040517f08c379a0000000000000000000000000000000000000000000000000000000008152600401610a1f90611374565b60405180910390fd5b806000808473ffffffffffffffffffffffffffffffffffffffff1673ffffffffffffffffffffffffffffffffffffffff168152602001908152602001600020819055505050565b600660149054906101000a900460ff1681565b600360009054906101000a900473ffffffffffffffffffffffffffffffffffffffff1673ffffffffffffffffffffffffffffffffffffffff163373ffffffffffffffffffffffffffffffffffffffff1614610b12576040517f08c379a0000000000000000000000000000000000000000000000000000000008152600401610b0990610e47565b60405180910390fd5b80600360006101000a81548173ffffffffffffffffffffffffffffffffffffffff021916908373ffffffffffffffffffffffffffffffffffffffff16021790555050565b600080610b616108f7565b90506305f5e1008184610b749190611394565b610b7e9190611405565b915050919050565b600080fd5b600073ffffffffffffffffffffffffffffffffffffffff82169050919050565b6000610bb682610b8b565b9050919050565b610bc681610bab565b8114610bd157600080fd5b50565b600081359050610be381610bbd565b92915050565b600060208284031215610bff57610bfe610b86565b5b6000610c0d84828501610bd4565b91505092915050565b6000819050919050565b610c2981610c16565b82525050565b6000602082019050610c446000830184610c20565b92915050565b610c5381610bab565b82525050565b6000602082019050610c6e6000830184610c4a565b92915050565b6000819050919050565b6000610c99610c94610c8f84610b8b565b610c74565b610b8b565b9050919050565b6000610cab82610c7e565b9050919050565b6000610cbd82610ca0565b9050919050565b610ccd81610cb2565b82525050565b6000602082019050610ce86000830184610cc4565b92915050565b6000819050919050565b610d0181610cee565b82525050565b6000602082019050610d1c6000830184610cf8565b92915050565b610d2b81610c16565b8114610d3657600080fd5b50565b600081359050610d4881610d22565b92915050565b60008060408385031215610d6557610d64610b86565b5b6000610d7385828601610bd4565b9250506020610d8485828601610d39565b9150509250929050565b60008115159050919050565b610da381610d8e565b82525050565b6000602082019050610dbe6000830184610d9a565b92915050565b600082825260208201905092915050565b7f746869732066756e6374696f6e2063616e206f6e6c792062652063616c6c656460008201527f206279206f776e65720000000000000000000000000000000000000000000000602082015250565b6000610e31602983610dc4565b9150610e3c82610dd5565b604082019050919050565b60006020820190508181036000830152610e6081610e24565b9050919050565b7f4e487b7100000000000000000000000000000000000000000000000000000000600052601160045260246000fd5b6000610ea182610c16565b9150610eac83610c16565b9250828201905080821115610ec457610ec3610e67565b5b92915050565b7f77696e646f77206973206e6f7420636c6f736564000000000000000000000000600082015250565b6000610f00601483610dc4565b9150610f0b82610eca565b602082019050919050565b60006020820190508181036000830152610f2f81610ef3565b9050919050565b7f5461726765742069732072656163686564000000000000000000000000000000600082015250565b6000610f6c601183610dc4565b9150610f7782610f36565b602082019050919050565b60006020820190508181036000830152610f9b81610f5f565b9050919050565b7f7468657265206973206e6f2066756e6420666f7220796f750000000000000000600082015250565b6000610fd8601883610dc4565b9150610fe382610fa2565b602082019050919050565b6000602082019050818103600083015261100781610fcb565b9050919050565b600081905092915050565b50565b600061102960008361100e565b915061103482611019565b600082019050919050565b600061104a8261101c565b9150819050919050565b7f7472616e73666572207478206661696c65640000000000000000000000000000600082015250565b600061108a601283610dc4565b915061109582611054565b602082019050919050565b600060208201905081810360008301526110b98161107d565b9050919050565b7f546172676574206973206e6f7420726561636865640000000000000000000000600082015250565b60006110f6601583610dc4565b9150611101826110c0565b602082019050919050565b60006020820190508181036000830152611125816110e9565b9050919050565b7f53656e64206d6f72652045544800000000000000000000000000000000000000600082015250565b6000611162600d83610dc4565b915061116d8261112c565b602082019050919050565b6000602082019050818103600083015261119181611155565b9050919050565b7f77696e646f7720697320636c6f73656400000000000000000000000000000000600082015250565b60006111ce601083610dc4565b91506111d982611198565b602082019050919050565b600060208201905081810360008301526111fd816111c1565b9050919050565b600069ffffffffffffffffffff82169050919050565b61122381611204565b811461122e57600080fd5b50565b6000815190506112408161121a565b92915050565b61124f81610cee565b811461125a57600080fd5b50565b60008151905061126c81611246565b92915050565b60008151905061128181610d22565b92915050565b600080600080600060a086880312156112a3576112a2610b86565b5b60006112b188828901611231565b95505060206112c28882890161125d565b94505060406112d388828901611272565b93505060606112e488828901611272565b92505060806112f588828901611231565b9150509295509295909350565b7f596f7520646f206e6f742068617665207065726d697373696f6e20746f20636160008201527f6c6c20746869732066756e6374696f6e00000000000000000000000000000000602082015250565b600061135e603083610dc4565b915061136982611302565b604082019050919050565b6000602082019050818103600083015261138d81611351565b9050919050565b600061139f82610c16565b91506113aa83610c16565b92508282026113b881610c16565b915082820484148315176113cf576113ce610e67565b5b5092915050565b7f4e487b7100000000000000000000000000000000000000000000000000000000600052601260045260246000fd5b600061141082610c16565b915061141b83610c16565b92508261142b5761142a6113d6565b5b82820490509291505056fea2646970667358221220cff369ed581e7ec52bbcde69fe33d83460ef463aacbe810b05f49201f4dd5cd264736f6c634300081c0033",
  "devdoc": {
    "kind": "dev",
    "methods": {},
    "version": 1
  },
  "userdoc": {
    "kind": "user",
    "methods": {},
    "version": 1
  },
  "storageLayout": {
    "storage": [
      {
        "astId": 53,
        "contract": "contracts/FundMe.sol:FundMe",
        "label": "funderToAmount",
        "offset": 0,
        "slot": "0",
        "type": "t_mapping(t_address,t_uint256)"
      },
      {
        "astId": 60,
        "contract": "contracts/FundMe.sol:FundMe",
        "label": "MINIMUM_VALUE",
        "offset": 0,
        "slot": "1",
        "type": "t_uint256"
      },
      {
        "astId": 63,
        "contract": "contracts/FundMe.sol:FundMe",
        "label": "dataFeed",
        "offset": 0,
        "slot": "2",
        "type": "t_contract(AggregatorV3Interface)45"
      },
      {
        "astId": 72,
        "contract": "contracts/FundMe.sol:FundMe",
        "label": "owner",
        "offset": 0,
        "slot": "3",
        "type": "t_address"
      },
      {
        "astId": 74,
        "contract": "contracts/FundMe.sol:FundMe",
        "label": "deploymentTimestamp",
        "offset": 0,
        "slot": "4",
        "type": "t_uint256"
      },
      {
        "astId": 76,
        "contract": "contracts/FundMe.sol:FundMe",
        "label": "lockTime",
        "offset": 0,
        "slot": "5",
        "type": "t_uint256"
      },
      {
        "astId": 78,
        "contract": "contracts/FundMe.sol:FundMe",
        "label": "erc20Addr",
        "offset": 0,
        "slot": "6",
        "type": "t_address"
      },
      {
        "astId": 81,
        "contract": "contracts/FundMe.sol:FundMe",
        "label": "getFundSuccess",
        "offset": 20,
        "slot": "6",
        "type": "t_bool"
      }
    ],
    "types": {
      "t_address": {
        "encoding": "inplace",
        "label": "address",
        "numberOfBytes": "20"
      },
      "t_bool": {
        "encoding": "inplace",
        "label": "bool",
        "numberOfBytes": "1"
      },
      "t_contract(AggregatorV3Interface)45": {
        "encoding": "inplace",
        "label": "contract AggregatorV3Interface",
        "numberOfBytes": "20"
      },
      "t_mapping(t_address,t_uint256)": {
        "encoding": "mapping",
        "key": "t_address",
        "label": "mapping(address => uint256)",
        "numberOfBytes": "32",
        "value": "t_uint256"
      },
      "t_uint256": {
        "encoding": "inplace",
        "label": "uint256",
        "numberOfBytes": "32"
      }
    }
  }
}